{
  "_format": "hh-sol-artifact-1",
  "contractName": "Pool",
  "sourceName": "contracts/Pool.sol",
  "abi": [
    {
      "inputs": [],
      "stateMutability": "nonpayable",
      "type": "constructor"
    },
    {
      "anonymous": false,
      "inputs": [
        {
          "indexed": true,
          "internalType": "address",
          "name": "owner",
          "type": "address"
        },
        {
          "indexed": true,
          "internalType": "address",
          "name": "approved",
          "type": "address"
        },
        {
          "indexed": true,
          "internalType": "uint256",
          "name": "tokenId",
          "type": "uint256"
        }
      ],
      "name": "Approval",
      "type": "event"
    },
    {
      "anonymous": false,
      "inputs": [
        {
          "indexed": true,
          "internalType": "address",
          "name": "owner",
          "type": "address"
        },
        {
          "indexed": true,
          "internalType": "address",
          "name": "operator",
          "type": "address"
        },
        {
          "indexed": false,
          "internalType": "bool",
          "name": "approved",
          "type": "bool"
        }
      ],
      "name": "ApprovalForAll",
      "type": "event"
    },
    {
      "anonymous": false,
      "inputs": [
        {
          "indexed": true,
          "internalType": "uint256",
          "name": "drawNumber",
          "type": "uint256"
        },
        {
          "indexed": false,
          "internalType": "uint256",
          "name": "drawTotal",
          "type": "uint256"
        },
        {
          "indexed": false,
          "internalType": "uint256",
          "name": "drawTimestamp",
          "type": "uint256"
        }
      ],
      "name": "LotteryDraw",
      "type": "event"
    },
    {
      "anonymous": false,
      "inputs": [
        {
          "indexed": true,
          "internalType": "address",
          "name": "previousOwner",
          "type": "address"
        },
        {
          "indexed": true,
          "internalType": "address",
          "name": "newOwner",
          "type": "address"
        }
      ],
      "name": "OwnershipTransferred",
      "type": "event"
    },
    {
      "anonymous": false,
      "inputs": [
        {
          "indexed": true,
          "internalType": "address",
          "name": "from",
          "type": "address"
        },
        {
          "indexed": true,
          "internalType": "address",
          "name": "to",
          "type": "address"
        },
        {
          "indexed": true,
          "internalType": "uint256",
          "name": "tokenId",
          "type": "uint256"
        }
      ],
      "name": "Transfer",
      "type": "event"
    },
    {
      "inputs": [
        {
          "internalType": "uint256",
          "name": "",
          "type": "uint256"
        }
      ],
      "name": "_winningTokens",
      "outputs": [
        {
          "internalType": "bool",
          "name": "",
          "type": "bool"
        }
      ],
      "stateMutability": "view",
      "type": "function"
    },
    {
      "inputs": [
        {
          "internalType": "address",
          "name": "to",
          "type": "address"
        },
        {
          "internalType": "uint256",
          "name": "tokenId",
          "type": "uint256"
        }
      ],
      "name": "approve",
      "outputs": [],
      "stateMutability": "nonpayable",
      "type": "function"
    },
    {
      "inputs": [
        {
          "internalType": "address",
          "name": "owner",
          "type": "address"
        }
      ],
      "name": "balanceOf",
      "outputs": [
        {
          "internalType": "uint256",
          "name": "",
          "type": "uint256"
        }
      ],
      "stateMutability": "view",
      "type": "function"
    },
    {
      "inputs": [
        {
          "internalType": "uint256",
          "name": "drawNumber",
          "type": "uint256"
        }
      ],
      "name": "buyTicket",
      "outputs": [],
      "stateMutability": "payable",
      "type": "function"
    },
    {
      "inputs": [
        {
          "internalType": "uint256",
          "name": "tokenId",
          "type": "uint256"
        }
      ],
      "name": "claimFunds",
      "outputs": [],
      "stateMutability": "payable",
      "type": "function"
    },
    {
      "inputs": [
        {
          "internalType": "uint256",
          "name": "tokenId",
          "type": "uint256"
        }
      ],
      "name": "getApproved",
      "outputs": [
        {
          "internalType": "address",
          "name": "",
          "type": "address"
        }
      ],
      "stateMutability": "view",
      "type": "function"
    },
    {
      "inputs": [
        {
          "internalType": "address",
          "name": "userAddress",
          "type": "address"
        }
      ],
      "name": "getDetails",
      "outputs": [
        {
          "internalType": "uint256",
          "name": "amount",
          "type": "uint256"
        },
        {
          "internalType": "uint256",
          "name": "currentDrawNumber",
          "type": "uint256"
        },
        {
          "internalType": "uint256",
          "name": "ticketPrice",
          "type": "uint256"
        },
        {
          "internalType": "uint256",
          "name": "currentParticipants",
          "type": "uint256"
        },
        {
          "internalType": "uint256",
          "name": "maxParticipants",
          "type": "uint256"
        },
        {
          "internalType": "bool",
          "name": "enteredCurrentDraw",
          "type": "bool"
        }
      ],
      "stateMutability": "view",
      "type": "function"
    },
    {
      "inputs": [
        {
          "internalType": "address",
          "name": "owner",
          "type": "address"
        }
      ],
      "name": "getUserTickets",
      "outputs": [
        {
          "components": [
            {
              "internalType": "uint256",
              "name": "ticketId",
              "type": "uint256"
            },
            {
              "internalType": "uint256",
              "name": "winnings",
              "type": "uint256"
            }
          ],
          "internalType": "struct PoolTicket.UserTicketDetails[]",
          "name": "",
          "type": "tuple[]"
        }
      ],
      "stateMutability": "view",
      "type": "function"
    },
    {
      "inputs": [
        {
          "internalType": "address",
          "name": "owner",
          "type": "address"
        }
      ],
      "name": "hasUnclaimedWinnings",
      "outputs": [
        {
          "internalType": "bool",
          "name": "userHasUnclaimedWinnings",
          "type": "bool"
        },
        {
          "internalType": "uint256",
          "name": "lastIndex",
          "type": "uint256"
        },
        {
          "internalType": "uint256",
          "name": "totalTokens",
          "type": "uint256"
        }
      ],
      "stateMutability": "view",
      "type": "function"
    },
    {
      "inputs": [
        {
          "internalType": "address",
          "name": "owner",
          "type": "address"
        },
        {
          "internalType": "address",
          "name": "operator",
          "type": "address"
        }
      ],
      "name": "isApprovedForAll",
      "outputs": [
        {
          "internalType": "bool",
          "name": "",
          "type": "bool"
        }
      ],
      "stateMutability": "view",
      "type": "function"
    },
    {
      "inputs": [],
      "name": "name",
      "outputs": [
        {
          "internalType": "string",
          "name": "",
          "type": "string"
        }
      ],
      "stateMutability": "view",
      "type": "function"
    },
    {
      "inputs": [],
      "name": "owner",
      "outputs": [
        {
          "internalType": "address",
          "name": "",
          "type": "address"
        }
      ],
      "stateMutability": "view",
      "type": "function"
    },
    {
      "inputs": [
        {
          "internalType": "uint256",
          "name": "tokenId",
          "type": "uint256"
        }
      ],
      "name": "ownerOf",
      "outputs": [
        {
          "internalType": "address",
          "name": "",
          "type": "address"
        }
      ],
      "stateMutability": "view",
      "type": "function"
    },
    {
      "inputs": [],
      "name": "renounceOwnership",
      "outputs": [],
      "stateMutability": "nonpayable",
      "type": "function"
    },
    {
      "inputs": [
        {
          "internalType": "address",
          "name": "from",
          "type": "address"
        },
        {
          "internalType": "address",
          "name": "to",
          "type": "address"
        },
        {
          "internalType": "uint256",
          "name": "tokenId",
          "type": "uint256"
        }
      ],
      "name": "safeTransferFrom",
      "outputs": [],
      "stateMutability": "nonpayable",
      "type": "function"
    },
    {
      "inputs": [
        {
          "internalType": "address",
          "name": "operator",
          "type": "address"
        },
        {
          "internalType": "bool",
          "name": "approved",
          "type": "bool"
        }
      ],
      "name": "setApprovalForAll",
      "outputs": [],
      "stateMutability": "nonpayable",
      "type": "function"
    },
    {
      "inputs": [
        {
          "internalType": "uint256",
          "name": "newTicketPrice",
          "type": "uint256"
        }
      ],
      "name": "setNextDrawTicketPrice",
      "outputs": [],
      "stateMutability": "nonpayable",
      "type": "function"
    },
    {
      "inputs": [
        {
          "internalType": "uint64",
          "name": "nextParticipantsCount",
          "type": "uint64"
        }
      ],
      "name": "setNextParticipantsForRound",
      "outputs": [],
      "stateMutability": "nonpayable",
      "type": "function"
    },
    {
      "inputs": [
        {
          "internalType": "uint8[]",
          "name": "percentageDistribution",
          "type": "uint8[]"
        }
      ],
      "name": "setWinningPercentages",
      "outputs": [],
      "stateMutability": "nonpayable",
      "type": "function"
    },
    {
      "inputs": [
        {
          "internalType": "bytes4",
          "name": "interfaceId",
          "type": "bytes4"
        }
      ],
      "name": "supportsInterface",
      "outputs": [
        {
          "internalType": "bool",
          "name": "",
          "type": "bool"
        }
      ],
      "stateMutability": "view",
      "type": "function"
    },
    {
      "inputs": [],
      "name": "symbol",
      "outputs": [
        {
          "internalType": "string",
          "name": "",
          "type": "string"
        }
      ],
      "stateMutability": "view",
      "type": "function"
    },
    {
      "inputs": [
        {
          "internalType": "uint256",
          "name": "index",
          "type": "uint256"
        }
      ],
      "name": "tokenByIndex",
      "outputs": [
        {
          "internalType": "uint256",
          "name": "",
          "type": "uint256"
        }
      ],
      "stateMutability": "view",
      "type": "function"
    },
    {
      "inputs": [
        {
          "internalType": "address",
          "name": "owner",
          "type": "address"
        },
        {
          "internalType": "uint256",
          "name": "index",
          "type": "uint256"
        }
      ],
      "name": "tokenOfOwnerByIndex",
      "outputs": [
        {
          "internalType": "uint256",
          "name": "",
          "type": "uint256"
        }
      ],
      "stateMutability": "view",
      "type": "function"
    },
    {
      "inputs": [
        {
          "internalType": "uint256",
          "name": "tokenId",
          "type": "uint256"
        }
      ],
      "name": "tokenURI",
      "outputs": [
        {
          "internalType": "string",
          "name": "",
          "type": "string"
        }
      ],
      "stateMutability": "view",
      "type": "function"
    },
    {
      "inputs": [],
      "name": "totalSupply",
      "outputs": [
        {
          "internalType": "uint256",
          "name": "",
          "type": "uint256"
        }
      ],
      "stateMutability": "view",
      "type": "function"
    },
    {
      "inputs": [
        {
          "internalType": "address",
          "name": "from",
          "type": "address"
        },
        {
          "internalType": "address",
          "name": "to",
          "type": "address"
        },
        {
          "internalType": "uint256",
          "name": "tokenId",
          "type": "uint256"
        }
      ],
      "name": "transferFrom",
      "outputs": [],
      "stateMutability": "nonpayable",
      "type": "function"
    },
    {
      "inputs": [
        {
          "internalType": "address",
          "name": "newOwner",
          "type": "address"
        }
      ],
      "name": "transferOwnership",
      "outputs": [],
      "stateMutability": "nonpayable",
      "type": "function"
    }
  ],
  "bytecode": "0x60806040526000600e55600060115560006017556000601860006101000a81548160ff0219169083151502179055503480156200003b57600080fd5b506040518060400160405280600f81526020017f484d3120506f6f6c205469636b657400000000000000000000000000000000008152506040518060400160405280600381526020017f484d5400000000000000000000000000000000000000000000000000000000008152506000620000ba6200033860201b60201c565b9050806000806101000a81548173ffffffffffffffffffffffffffffffffffffffff021916908373ffffffffffffffffffffffffffffffffffffffff1602179055508073ffffffffffffffffffffffffffffffffffffffff16600073ffffffffffffffffffffffffffffffffffffffff167f8be0079c531659141344cd1fd0a4f28419497f9722a3daafe3b4186f6b6457e060405160405180910390a35081600190805190602001906200017092919062000390565b5080600290805190602001906200018992919062000390565b5050506801158e460913d00000600b81905550600b54600c81905550620001bc600d6200034060201b62001d6b1760201c565b6014603c90806001815401808255809150506001900390600052602060002090602091828204019190069091909190916101000a81548160ff021916908360ff1602179055506014602890806001815401808255809150506001900390600052602060002090602091828204019190069091909190916101000a81548160ff021916908360ff160217905550601460169080546200025c92919062000421565b5060006002905080601360006101000a81548167ffffffffffffffff021916908367ffffffffffffffff16021790555080601560006101000a81548167ffffffffffffffff021916908367ffffffffffffffff160217905550620002cc60196200034060201b62001d6b1760201c565b6001620002de6200035660201b60201c565b620002ea9190620004a5565b60128190555030601a60006101000a81548173ffffffffffffffffffffffffffffffffffffffff021916908373ffffffffffffffffffffffffffffffffffffffff16021790555050620005db565b600033905090565b6001816000016000828254019250508190555050565b6000600162000371600d6200038260201b62001d811760201c565b6200037d919062000502565b905090565b600081600001549050919050565b8280546200039e9062000547565b90600052602060002090601f016020900481019282620003c257600085556200040e565b82601f10620003dd57805160ff19168380011785556200040e565b828001600101855582156200040e579182015b828111156200040d578251825591602001919060010190620003f0565b5b5090506200041d919062000486565b5090565b82805482825590600052602060002090601f016020900481019282156200047357600052602060002091601f016020900482015b828111156200047257825482559160010191906001019062000455565b5b50905062000482919062000486565b5090565b5b80821115620004a157600081600090555060010162000487565b5090565b6000620004b2826200053d565b9150620004bf836200053d565b9250827fffffffffffffffffffffffffffffffffffffffffffffffffffffffffffffffff03821115620004f757620004f66200057d565b5b828201905092915050565b60006200050f826200053d565b91506200051c836200053d565b9250828210156200053257620005316200057d565b5b828203905092915050565b6000819050919050565b600060028204905060018216806200056057607f821691505b60208210811415620005775762000576620005ac565b5b50919050565b7f4e487b7100000000000000000000000000000000000000000000000000000000600052601160045260246000fd5b7f4e487b7100000000000000000000000000000000000000000000000000000000600052602260045260246000fd5b61521c80620005eb6000396000f3fe6080604052600436106101b75760003560e01c80634f6ccce7116100ec57806395d89b411161008a578063c87b56dd11610064578063c87b56dd1461063f578063e985e9c51461067c578063ed86b969146106b9578063f2fde38b146106e2576101b7565b806395d89b41146105c2578063a22cb465146105ed578063b88d4fde14610616576101b7565b806370a08231116100c657806370a082311461051a578063715018a6146105575780637c1fa5611461056e5780638da5cb5b14610597576101b7565b80634f6ccce7146104845780636352211e146104c157806367dd74ca146104fe576101b7565b80631b55e338116101595780632f745c59116101335780632f745c59146103b357806330289c61146103f05780633e2445291461043257806342842e0e1461045b576101b7565b80631b55e338146103315780631be7e5041461034d57806323b872dd1461038a576101b7565b8063081812fc11610195578063081812fc14610261578063095ea7b31461029e57806318160ddd146102c75780631a099b4c146102f2576101b7565b806301ffc9a7146101bc5780630484a22f146101f957806306fdde0314610236575b600080fd5b3480156101c857600080fd5b506101e360048036038101906101de9190613784565b61070b565b6040516101f09190613e73565b60405180910390f35b34801561020557600080fd5b50610220600480360381019061021b919061359c565b610785565b60405161022d9190613e51565b60405180910390f35b34801561024257600080fd5b5061024b6108d2565b6040516102589190613ec5565b60405180910390f35b34801561026d57600080fd5b50610288600480360381019061028391906137d6565b610964565b6040516102959190613dea565b60405180910390f35b3480156102aa57600080fd5b506102c560048036038101906102c09190613707565b6109e9565b005b3480156102d357600080fd5b506102dc610b01565b6040516102e991906142a7565b60405180910390f35b3480156102fe57600080fd5b506103196004803603810190610314919061359c565b610b0e565b60405161032893929190613e8e565b60405180910390f35b61034b600480360381019061034691906137d6565b610b8e565b005b34801561035957600080fd5b50610374600480360381019061036f91906137d6565b610d24565b6040516103819190613e73565b60405180910390f35b34801561039657600080fd5b506103b160048036038101906103ac9190613601565b610d44565b005b3480156103bf57600080fd5b506103da60048036038101906103d59190613707565b610da4565b6040516103e791906142a7565b60405180910390f35b3480156103fc57600080fd5b506104176004803603810190610412919061359c565b610e49565b604051610429969594939291906142eb565b60405180910390f35b34801561043e57600080fd5b50610459600480360381019061045491906137d6565b610efb565b005b34801561046757600080fd5b50610482600480360381019061047d9190613601565b610f81565b005b34801561049057600080fd5b506104ab60048036038101906104a691906137d6565b610fa1565b6040516104b891906142a7565b60405180910390f35b3480156104cd57600080fd5b506104e860048036038101906104e391906137d6565b611038565b6040516104f59190613dea565b60405180910390f35b610518600480360381019061051391906137d6565b6110ea565b005b34801561052657600080fd5b50610541600480360381019061053c919061359c565b61121c565b60405161054e91906142a7565b60405180910390f35b34801561056357600080fd5b5061056c6112d4565b005b34801561057a57600080fd5b5061059560048036038101906105909190613743565b61140e565b005b3480156105a357600080fd5b506105ac6116f0565b6040516105b99190613dea565b60405180910390f35b3480156105ce57600080fd5b506105d7611719565b6040516105e49190613ec5565b60405180910390f35b3480156105f957600080fd5b50610614600480360381019061060f91906136cb565b6117ab565b005b34801561062257600080fd5b5061063d60048036038101906106389190613650565b61192c565b005b34801561064b57600080fd5b50610666600480360381019061066191906137d6565b61198e565b6040516106739190613ec5565b60405180910390f35b34801561068857600080fd5b506106a3600480360381019061069e91906135c5565b611a35565b6040516106b09190613e73565b60405180910390f35b3480156106c557600080fd5b506106e060048036038101906106db91906137ff565b611ac9565b005b3480156106ee57600080fd5b506107096004803603810190610704919061359c565b611bc2565b005b60007f780e9d63000000000000000000000000000000000000000000000000000000007bffffffffffffffffffffffffffffffffffffffffffffffffffffffff1916827bffffffffffffffffffffffffffffffffffffffffffffffffffffffff1916148061077e575061077d82611d8f565b5b9050919050565b606060006107928361121c565b905060008167ffffffffffffffff8111156107d6577f4e487b7100000000000000000000000000000000000000000000000000000000600052604160045260246000fd5b60405190808252806020026020018201604052801561080f57816020015b6107fc6132cd565b8152602001906001900390816107f45790505b50905060008290505b60008111156108c75760006001826108309190614562565b9050600061083e8783610da4565b905060006040518060400160405280838152602001600f6000858152602001908152602001600020548152509050808584815181106108a6577f4e487b7100000000000000000000000000000000000000000000000000000000600052603260045260246000fd5b602002602001018190525050505080806108bf906146af565b915050610818565b508092505050919050565b6060600180546108e190614703565b80601f016020809104026020016040519081016040528092919081815260200182805461090d90614703565b801561095a5780601f1061092f5761010080835404028352916020019161095a565b820191906000526020600020905b81548152906001019060200180831161093d57829003601f168201915b5050505050905090565b600061096f82611e71565b6109ae576040517f08c379a00000000000000000000000000000000000000000000000000000000081526004016109a590614147565b60405180910390fd5b6005600083815260200190815260200160002060009054906101000a900473ffffffffffffffffffffffffffffffffffffffff169050919050565b60006109f482611038565b90508073ffffffffffffffffffffffffffffffffffffffff168373ffffffffffffffffffffffffffffffffffffffff161415610a65576040517f08c379a0000000000000000000000000000000000000000000000000000000008152600401610a5c90614227565b60405180910390fd5b8073ffffffffffffffffffffffffffffffffffffffff16610a84611edd565b73ffffffffffffffffffffffffffffffffffffffff161480610ab35750610ab281610aad611edd565b611a35565b5b610af2576040517f08c379a0000000000000000000000000000000000000000000000000000000008152600401610ae9906140a7565b60405180910390fd5b610afc8383611ee5565b505050565b6000600980549050905090565b600080600080610b1d8561121c565b905060005b81811015610b7a576000610b368783610da4565b90506000600f6000838152602001908152602001600020541115610b665760018284955095509550505050610b87565b508080610b7290614791565b915050610b22565b5060008182935093509350505b9193909250565b610b9781611e71565b610bd6576040517f08c379a0000000000000000000000000000000000000000000000000000000008152600401610bcd90614007565b60405180910390fd5b3373ffffffffffffffffffffffffffffffffffffffff16610bf682611038565b73ffffffffffffffffffffffffffffffffffffffff1614610c4c576040517f08c379a0000000000000000000000000000000000000000000000000000000008152600401610c4390614127565b60405180910390fd5b6000600f600083815260200190815260200160002054905060008111610ca7576040517f08c379a0000000000000000000000000000000000000000000000000000000008152600401610c9e90613ee7565b60405180910390fd5b3373ffffffffffffffffffffffffffffffffffffffff166108fc829081150290604051600060405180830381858888f19350505050158015610ced573d6000803e3d6000fd5b5080600e6000828254610d009190614562565b925050819055506000600f6000848152602001908152602001600020819055505050565b601b6020528060005260406000206000915054906101000a900460ff1681565b610d55610d4f611edd565b82611f9e565b610d94576040517f08c379a0000000000000000000000000000000000000000000000000000000008152600401610d8b90614247565b60405180910390fd5b610d9f83838361207c565b505050565b6000610daf8361121c565b8210610df0576040517f08c379a0000000000000000000000000000000000000000000000000000000008152600401610de790613f07565b60405180910390fd5b600760008473ffffffffffffffffffffffffffffffffffffffff1673ffffffffffffffffffffffffffffffffffffffff168152602001908152602001600020600083815260200190815260200160002054905092915050565b60008060008060008060003073ffffffffffffffffffffffffffffffffffffffff163190506000610e786122d8565b82610e839190614562565b90506000610e916019611d81565b90506000610e9d6122e2565b9050600060175490506000601360009054906101000a900467ffffffffffffffff1667ffffffffffffffff1690506000610ed7858f6122ec565b90508585858585859c509c509c509c509c509c505050505050505091939550919395565b610f03611edd565b73ffffffffffffffffffffffffffffffffffffffff16610f216116f0565b73ffffffffffffffffffffffffffffffffffffffff1614610f77576040517f08c379a0000000000000000000000000000000000000000000000000000000008152600401610f6e90614187565b60405180910390fd5b80600c8190555050565b610f9c8383836040518060200160405280600081525061192c565b505050565b6000610fab610b01565b8210610fec576040517f08c379a0000000000000000000000000000000000000000000000000000000008152600401610fe390614267565b60405180910390fd5b60098281548110611026577f4e487b7100000000000000000000000000000000000000000000000000000000600052603260045260246000fd5b90600052602060002001549050919050565b6000806003600084815260200190815260200160002060009054906101000a900473ffffffffffffffffffffffffffffffffffffffff169050600073ffffffffffffffffffffffffffffffffffffffff168173ffffffffffffffffffffffffffffffffffffffff1614156110e1576040517f08c379a00000000000000000000000000000000000000000000000000000000081526004016110d8906140e7565b60405180910390fd5b80915050919050565b60006110f66019611d81565b905080821461113a576040517f08c379a000000000000000000000000000000000000000000000000000000000815260040161113190614207565b60405180910390fd5b601754601360009054906101000a900467ffffffffffffffff1667ffffffffffffffff161161119e576040517f08c379a0000000000000000000000000000000000000000000000000000000008152600401611195906141a7565b60405180910390fd5b600060175414156111c45760016111b3612338565b6111bd919061444a565b6012819055505b6111cd82612355565b601760008154809291906111e090614791565b9190505550601360009054906101000a900467ffffffffffffffff1667ffffffffffffffff16601754141561121857611217612403565b5b5050565b60008073ffffffffffffffffffffffffffffffffffffffff168273ffffffffffffffffffffffffffffffffffffffff16141561128d576040517f08c379a0000000000000000000000000000000000000000000000000000000008152600401611284906140c7565b60405180910390fd5b600460008373ffffffffffffffffffffffffffffffffffffffff1673ffffffffffffffffffffffffffffffffffffffff168152602001908152602001600020549050919050565b6112dc611edd565b73ffffffffffffffffffffffffffffffffffffffff166112fa6116f0565b73ffffffffffffffffffffffffffffffffffffffff1614611350576040517f08c379a000000000000000000000000000000000000000000000000000000000815260040161134790614187565b60405180910390fd5b600073ffffffffffffffffffffffffffffffffffffffff1660008054906101000a900473ffffffffffffffffffffffffffffffffffffffff1673ffffffffffffffffffffffffffffffffffffffff167f8be0079c531659141344cd1fd0a4f28419497f9722a3daafe3b4186f6b6457e060405160405180910390a360008060006101000a81548173ffffffffffffffffffffffffffffffffffffffff021916908373ffffffffffffffffffffffffffffffffffffffff160217905550565b611416611edd565b73ffffffffffffffffffffffffffffffffffffffff166114346116f0565b73ffffffffffffffffffffffffffffffffffffffff161461148a576040517f08c379a000000000000000000000000000000000000000000000000000000000815260040161148190614187565b60405180910390fd5b6000600282511180156114a35750601461ffff16825111155b90506000601560009054906101000a900467ffffffffffffffff1667ffffffffffffffff168351109050811561150e576040517f08c379a000000000000000000000000000000000000000000000000000000000815260040161150590614067565b60405180910390fd5b8061154e576040517f08c379a000000000000000000000000000000000000000000000000000000000815260040161154590613f87565b60405180910390fd5b6000806000855190505b60008160ff16111561168b576000866001836115749190614596565b60ff16815181106115ae577f4e487b7100000000000000000000000000000000000000000000000000000000600052603260045260246000fd5b60200260200101519050600060ff168260ff16146116665760008160ff161180156115dd575060648160ff1611155b61161c576040517f08c379a000000000000000000000000000000000000000000000000000000000815260040161161390613f47565b60405180910390fd5b8260ff168160ff161015611665576040517f08c379a000000000000000000000000000000000000000000000000000000000815260040161165c90613fe7565b60405180910390fd5b5b808461167291906144a0565b9350809250508080611683906146d9565b915050611558565b5060648260ff16146116d2576040517f08c379a00000000000000000000000000000000000000000000000000000000081526004016116c990613fa7565b60405180910390fd5b84601490805190602001906116e89291906132e7565b505050505050565b60008060009054906101000a900473ffffffffffffffffffffffffffffffffffffffff16905090565b60606002805461172890614703565b80601f016020809104026020016040519081016040528092919081815260200182805461175490614703565b80156117a15780601f10611776576101008083540402835291602001916117a1565b820191906000526020600020905b81548152906001019060200180831161178457829003601f168201915b5050505050905090565b6117b3611edd565b73ffffffffffffffffffffffffffffffffffffffff168273ffffffffffffffffffffffffffffffffffffffff161415611821576040517f08c379a000000000000000000000000000000000000000000000000000000000815260040161181890614047565b60405180910390fd5b806006600061182e611edd565b73ffffffffffffffffffffffffffffffffffffffff1673ffffffffffffffffffffffffffffffffffffffff16815260200190815260200160002060008473ffffffffffffffffffffffffffffffffffffffff1673ffffffffffffffffffffffffffffffffffffffff16815260200190815260200160002060006101000a81548160ff0219169083151502179055508173ffffffffffffffffffffffffffffffffffffffff166118db611edd565b73ffffffffffffffffffffffffffffffffffffffff167f17307eab39ab6107e8899845ad3d59bd9653f200f220920489ca2b5937696c31836040516119209190613e73565b60405180910390a35050565b61193d611937611edd565b83611f9e565b61197c576040517f08c379a000000000000000000000000000000000000000000000000000000000815260040161197390614247565b60405180910390fd5b61198884848484612537565b50505050565b606061199982611e71565b6119d8576040517f08c379a00000000000000000000000000000000000000000000000000000000081526004016119cf906141e7565b60405180910390fd5b60006119e2612593565b90506000815111611a025760405180602001604052806000815250611a2d565b80611a0c846125aa565b604051602001611a1d929190613dc6565b6040516020818303038152906040525b915050919050565b6000600660008473ffffffffffffffffffffffffffffffffffffffff1673ffffffffffffffffffffffffffffffffffffffff16815260200190815260200160002060008373ffffffffffffffffffffffffffffffffffffffff1673ffffffffffffffffffffffffffffffffffffffff16815260200190815260200160002060009054906101000a900460ff16905092915050565b611ad1611edd565b73ffffffffffffffffffffffffffffffffffffffff16611aef6116f0565b73ffffffffffffffffffffffffffffffffffffffff1614611b45576040517f08c379a0000000000000000000000000000000000000000000000000000000008152600401611b3c90614187565b60405180910390fd5b6016805490508167ffffffffffffffff1611611b96576040517f08c379a0000000000000000000000000000000000000000000000000000000008152600401611b8d90614287565b60405180910390fd5b80601560006101000a81548167ffffffffffffffff021916908367ffffffffffffffff16021790555050565b611bca611edd565b73ffffffffffffffffffffffffffffffffffffffff16611be86116f0565b73ffffffffffffffffffffffffffffffffffffffff1614611c3e576040517f08c379a0000000000000000000000000000000000000000000000000000000008152600401611c3590614187565b60405180910390fd5b600073ffffffffffffffffffffffffffffffffffffffff168173ffffffffffffffffffffffffffffffffffffffff161415611cae576040517f08c379a0000000000000000000000000000000000000000000000000000000008152600401611ca590613f67565b60405180910390fd5b8073ffffffffffffffffffffffffffffffffffffffff1660008054906101000a900473ffffffffffffffffffffffffffffffffffffffff1673ffffffffffffffffffffffffffffffffffffffff167f8be0079c531659141344cd1fd0a4f28419497f9722a3daafe3b4186f6b6457e060405160405180910390a3806000806101000a81548173ffffffffffffffffffffffffffffffffffffffff021916908373ffffffffffffffffffffffffffffffffffffffff16021790555050565b6001816000016000828254019250508190555050565b600081600001549050919050565b60007f80ac58cd000000000000000000000000000000000000000000000000000000007bffffffffffffffffffffffffffffffffffffffffffffffffffffffff1916827bffffffffffffffffffffffffffffffffffffffffffffffffffffffff19161480611e5a57507f5b5e139f000000000000000000000000000000000000000000000000000000007bffffffffffffffffffffffffffffffffffffffffffffffffffffffff1916827bffffffffffffffffffffffffffffffffffffffffffffffffffffffff1916145b80611e6a5750611e6982612757565b5b9050919050565b60008073ffffffffffffffffffffffffffffffffffffffff166003600084815260200190815260200160002060009054906101000a900473ffffffffffffffffffffffffffffffffffffffff1673ffffffffffffffffffffffffffffffffffffffff1614159050919050565b600033905090565b816005600083815260200190815260200160002060006101000a81548173ffffffffffffffffffffffffffffffffffffffff021916908373ffffffffffffffffffffffffffffffffffffffff160217905550808273ffffffffffffffffffffffffffffffffffffffff16611f5883611038565b73ffffffffffffffffffffffffffffffffffffffff167f8c5be1e5ebec7d5bd14f71427d1e84f3dd0314c0f7b2291e5b200ac8c7c3b92560405160405180910390a45050565b6000611fa982611e71565b611fe8576040517f08c379a0000000000000000000000000000000000000000000000000000000008152600401611fdf90614087565b60405180910390fd5b6000611ff383611038565b90508073ffffffffffffffffffffffffffffffffffffffff168473ffffffffffffffffffffffffffffffffffffffff16148061206257508373ffffffffffffffffffffffffffffffffffffffff1661204a84610964565b73ffffffffffffffffffffffffffffffffffffffff16145b8061207357506120728185611a35565b5b91505092915050565b8273ffffffffffffffffffffffffffffffffffffffff1661209c82611038565b73ffffffffffffffffffffffffffffffffffffffff16146120f2576040517f08c379a00000000000000000000000000000000000000000000000000000000081526004016120e9906141c7565b60405180910390fd5b600073ffffffffffffffffffffffffffffffffffffffff168273ffffffffffffffffffffffffffffffffffffffff161415612162576040517f08c379a000000000000000000000000000000000000000000000000000000000815260040161215990614027565b60405180910390fd5b61216d8383836127c1565b612178600082611ee5565b6001600460008573ffffffffffffffffffffffffffffffffffffffff1673ffffffffffffffffffffffffffffffffffffffff16815260200190815260200160002060008282546121c89190614562565b925050819055506001600460008473ffffffffffffffffffffffffffffffffffffffff1673ffffffffffffffffffffffffffffffffffffffff168152602001908152602001600020600082825461221f919061444a565b92505081905550816003600083815260200190815260200160002060006101000a81548173ffffffffffffffffffffffffffffffffffffffff021916908373ffffffffffffffffffffffffffffffffffffffff160217905550808273ffffffffffffffffffffffffffffffffffffffff168473ffffffffffffffffffffffffffffffffffffffff167fddf252ad1be2c89b69c2b068fc378daa952ba7f163c4a11628f55a4df523b3ef60405160405180910390a4505050565b6000600e54905090565b6000600b54905090565b600082601060008473ffffffffffffffffffffffffffffffffffffffff1673ffffffffffffffffffffffffffffffffffffffff1681526020019081526020016000205414905092915050565b60006001612346600d611d81565b6123509190614562565b905090565b600b543414612399576040517f08c379a000000000000000000000000000000000000000000000000000000000815260040161239090614167565b60405180910390fd5b60006123a5600d611d81565b90506123b1600d611d6b565b6123bb33826128d5565b81601060003373ffffffffffffffffffffffffffffffffffffffff1673ffffffffffffffffffffffffffffffffffffffff168152602001908152602001600020819055505050565b600047905060006124126122d8565b8261241d9190614562565b90506000612429612338565b90506000601754905060008390506000601480549050831161244b5782612452565b6014805490505b905060008190505b60008111156125255760006001826124729190614562565b90506000601482815481106124b0577f4e487b7100000000000000000000000000000000000000000000000000000000600052603260045260246000fd5b90600052602060002090602091828204019190069054906101000a900460ff1660ff16905060006124df6128f3565b60001c905060006124f08a84612914565b905080876124fe9190614562565b965061250e8482898c868d612936565b50505050808061251d906146af565b91505061245a565b5061252f856129af565b505050505050565b61254284848461207c565b61254e84848484612a7c565b61258d576040517f08c379a000000000000000000000000000000000000000000000000000000000815260040161258490613f27565b60405180910390fd5b50505050565b606060405180602001604052806000815250905090565b606060008214156125f2576040518060400160405280600181526020017f30000000000000000000000000000000000000000000000000000000000000008152509050612752565b600082905060005b6000821461262457808061260d90614791565b915050600a8261261d91906144d7565b91506125fa565b60008167ffffffffffffffff811115612666577f4e487b7100000000000000000000000000000000000000000000000000000000600052604160045260246000fd5b6040519080825280601f01601f1916602001820160405280156126985781602001600182028036833780820191505090505b5090505b6000851461274b576001826126b19190614562565b9150600a856126c091906147da565b60306126cc919061444a565b60f81b818381518110612708577f4e487b7100000000000000000000000000000000000000000000000000000000600052603260045260246000fd5b60200101907effffffffffffffffffffffffffffffffffffffffffffffffffffffffffffff1916908160001a905350600a8561274491906144d7565b945061269c565b8093505050505b919050565b60007f01ffc9a7000000000000000000000000000000000000000000000000000000007bffffffffffffffffffffffffffffffffffffffffffffffffffffffff1916827bffffffffffffffffffffffffffffffffffffffffffffffffffffffff1916149050919050565b6127cc838383612c13565b600073ffffffffffffffffffffffffffffffffffffffff168373ffffffffffffffffffffffffffffffffffffffff16141561280f5761280a81612c18565b61284e565b8173ffffffffffffffffffffffffffffffffffffffff168373ffffffffffffffffffffffffffffffffffffffff161461284d5761284c8382612c61565b5b5b600073ffffffffffffffffffffffffffffffffffffffff168273ffffffffffffffffffffffffffffffffffffffff1614156128915761288c81612dce565b6128d0565b8273ffffffffffffffffffffffffffffffffffffffff168273ffffffffffffffffffffffffffffffffffffffff16146128cf576128ce8282612f11565b5b5b505050565b6128ef828260405180602001604052806000815250612f90565b5050565b60008060405160208160208460ff600019fa61290b57fe5b80519250505090565b6000606482846129249190614508565b61292e91906144d7565b905092915050565b600060ff1686141561296057838561294e919061444a565b945061295b600086612feb565b6129a7565b600061296d848484613032565b90506001601b600083815260200190815260200160002060006101000a81548160ff0219169083151502179055506129a58187612feb565b505b505050505050565b6129b96019611d81565b7f65068decc28551fd8edae610159050c4eb241166ad2e0d96dab87c970fb9965e82426040516129ea9291906142c2565b60405180910390a26129fc6019611d6b565b6000601781905550601560009054906101000a900467ffffffffffffffff16601360006101000a81548167ffffffffffffffff021916908367ffffffffffffffff16021790555060166014908054612a5592919061338e565b506000601860006101000a81548160ff021916908315150217905550612a796130e1565b50565b6000612a9d8473ffffffffffffffffffffffffffffffffffffffff166130ec565b15612c06578373ffffffffffffffffffffffffffffffffffffffff1663150b7a02612ac6611edd565b8786866040518563ffffffff1660e01b8152600401612ae89493929190613e05565b602060405180830381600087803b158015612b0257600080fd5b505af1925050508015612b3357506040513d601f19601f82011682018060405250810190612b3091906137ad565b60015b612bb6573d8060008114612b63576040519150601f19603f3d011682016040523d82523d6000602084013e612b68565b606091505b50600081511415612bae576040517f08c379a0000000000000000000000000000000000000000000000000000000008152600401612ba590613f27565b60405180910390fd5b805181602001fd5b63150b7a0260e01b7bffffffffffffffffffffffffffffffffffffffffffffffffffffffff1916817bffffffffffffffffffffffffffffffffffffffffffffffffffffffff191614915050612c0b565b600190505b949350505050565b505050565b600980549050600a600083815260200190815260200160002081905550600981908060018154018082558091505060019003906000526020600020016000909190919091505550565b60006001612c6e8461121c565b612c789190614562565b9050600060086000848152602001908152602001600020549050818114612d5d576000600760008673ffffffffffffffffffffffffffffffffffffffff1673ffffffffffffffffffffffffffffffffffffffff168152602001908152602001600020600084815260200190815260200160002054905080600760008773ffffffffffffffffffffffffffffffffffffffff1673ffffffffffffffffffffffffffffffffffffffff168152602001908152602001600020600084815260200190815260200160002081905550816008600083815260200190815260200160002081905550505b6008600084815260200190815260200160002060009055600760008573ffffffffffffffffffffffffffffffffffffffff1673ffffffffffffffffffffffffffffffffffffffff16815260200190815260200160002060008381526020019081526020016000206000905550505050565b60006001600980549050612de29190614562565b90506000600a6000848152602001908152602001600020549050600060098381548110612e38577f4e487b7100000000000000000000000000000000000000000000000000000000600052603260045260246000fd5b906000526020600020015490508060098381548110612e80577f4e487b7100000000000000000000000000000000000000000000000000000000600052603260045260246000fd5b906000526020600020018190555081600a600083815260200190815260200160002081905550600a6000858152602001908152602001600020600090556009805480612ef5577f4e487b7100000000000000000000000000000000000000000000000000000000600052603160045260246000fd5b6001900381819060005260206000200160009055905550505050565b6000612f1c8361121c565b905081600760008573ffffffffffffffffffffffffffffffffffffffff1673ffffffffffffffffffffffffffffffffffffffff168152602001908152602001600020600083815260200190815260200160002081905550806008600084815260200190815260200160002081905550505050565b612f9a83836130ff565b612fa76000848484612a7c565b612fe6576040517f08c379a0000000000000000000000000000000000000000000000000000000008152600401612fdd90613f27565b60405180910390fd5b505050565b80600e6000828254612ffd919061444a565b9250508190555080600f60008481526020019081526020016000206000828254613027919061444a565b925050819055505050565b60008060019050600080600185613049919061444a565b8661305491906147da565b601254613061919061444a565b90505b8161ffff1681613074919061444a565b9250818061308190614766565b92505086838361ffff16613095919061444a565b11156130a5576012549050600091505b601b600084815260200190815260200160002060009054906101000a900460ff16806130d057508683115b613064578293505050509392505050565b600c54600b81905550565b600080823b905060008111915050919050565b600073ffffffffffffffffffffffffffffffffffffffff168273ffffffffffffffffffffffffffffffffffffffff16141561316f576040517f08c379a000000000000000000000000000000000000000000000000000000000815260040161316690614107565b60405180910390fd5b61317881611e71565b156131b8576040517f08c379a00000000000000000000000000000000000000000000000000000000081526004016131af90613fc7565b60405180910390fd5b6131c4600083836127c1565b6001600460008473ffffffffffffffffffffffffffffffffffffffff1673ffffffffffffffffffffffffffffffffffffffff1681526020019081526020016000206000828254613214919061444a565b92505081905550816003600083815260200190815260200160002060006101000a81548173ffffffffffffffffffffffffffffffffffffffff021916908373ffffffffffffffffffffffffffffffffffffffff160217905550808273ffffffffffffffffffffffffffffffffffffffff16600073ffffffffffffffffffffffffffffffffffffffff167fddf252ad1be2c89b69c2b068fc378daa952ba7f163c4a11628f55a4df523b3ef60405160405180910390a45050565b604051806040016040528060008152602001600081525090565b82805482825590600052602060002090601f0160209004810192821561337d5791602002820160005b8382111561334e57835183826101000a81548160ff021916908360ff1602179055509260200192600101602081600001049283019260010302613310565b801561337b5782816101000a81549060ff021916905560010160208160000104928301926001030261334e565b505b50905061338a91906133ee565b5090565b82805482825590600052602060002090601f016020900481019282156133dd57600052602060002091601f016020900482015b828111156133dc5782548255916001019190600101906133c1565b5b5090506133ea91906133ee565b5090565b5b808211156134075760008160009055506001016133ef565b5090565b600061341e61341984614371565b61434c565b9050808382526020820190508285602086028201111561343d57600080fd5b60005b8581101561346d57816134538882613587565b845260208401935060208301925050600181019050613440565b5050509392505050565b600061348a6134858461439d565b61434c565b9050828152602081018484840111156134a257600080fd5b6134ad84828561466d565b509392505050565b6000813590506134c48161515c565b92915050565b600082601f8301126134db57600080fd5b81356134eb84826020860161340b565b91505092915050565b60008135905061350381615173565b92915050565b6000813590506135188161518a565b92915050565b60008151905061352d8161518a565b92915050565b600082601f83011261354457600080fd5b8135613554848260208601613477565b91505092915050565b60008135905061356c816151a1565b92915050565b600081359050613581816151b8565b92915050565b600081359050613596816151cf565b92915050565b6000602082840312156135ae57600080fd5b60006135bc848285016134b5565b91505092915050565b600080604083850312156135d857600080fd5b60006135e6858286016134b5565b92505060206135f7858286016134b5565b9150509250929050565b60008060006060848603121561361657600080fd5b6000613624868287016134b5565b9350506020613635868287016134b5565b92505060406136468682870161355d565b9150509250925092565b6000806000806080858703121561366657600080fd5b6000613674878288016134b5565b9450506020613685878288016134b5565b93505060406136968782880161355d565b925050606085013567ffffffffffffffff8111156136b357600080fd5b6136bf87828801613533565b91505092959194509250565b600080604083850312156136de57600080fd5b60006136ec858286016134b5565b92505060206136fd858286016134f4565b9150509250929050565b6000806040838503121561371a57600080fd5b6000613728858286016134b5565b92505060206137398582860161355d565b9150509250929050565b60006020828403121561375557600080fd5b600082013567ffffffffffffffff81111561376f57600080fd5b61377b848285016134ca565b91505092915050565b60006020828403121561379657600080fd5b60006137a484828501613509565b91505092915050565b6000602082840312156137bf57600080fd5b60006137cd8482850161351e565b91505092915050565b6000602082840312156137e857600080fd5b60006137f68482850161355d565b91505092915050565b60006020828403121561381157600080fd5b600061381f84828501613572565b91505092915050565b60006138348383613d79565b60408301905092915050565b613849816145ca565b82525050565b600061385a826143de565b613864818561440c565b935061386f836143ce565b8060005b838110156138a05781516138878882613828565b9750613892836143ff565b925050600181019050613873565b5085935050505092915050565b6138b6816145dc565b82525050565b60006138c7826143e9565b6138d1818561441d565b93506138e181856020860161467c565b6138ea816148c7565b840191505092915050565b6000613900826143f4565b61390a818561442e565b935061391a81856020860161467c565b613923816148c7565b840191505092915050565b6000613939826143f4565b613943818561443f565b935061395381856020860161467c565b80840191505092915050565b600061396c60228361442e565b9150613977826148d8565b604082019050919050565b600061398f602b8361442e565b915061399a82614927565b604082019050919050565b60006139b260328361442e565b91506139bd82614976565b604082019050919050565b60006139d560198361442e565b91506139e0826149c5565b602082019050919050565b60006139f860268361442e565b9150613a03826149ee565b604082019050919050565b6000613a1b60468361442e565b9150613a2682614a3d565b606082019050919050565b6000613a3e60248361442e565b9150613a4982614ab2565b604082019050919050565b6000613a61601c8361442e565b9150613a6c82614b01565b602082019050919050565b6000613a8460318361442e565b9150613a8f82614b2a565b604082019050919050565b6000613aa7601c8361442e565b9150613ab282614b79565b602082019050919050565b6000613aca60248361442e565b9150613ad582614ba2565b604082019050919050565b6000613aed60198361442e565b9150613af882614bf1565b602082019050919050565b6000613b1060328361442e565b9150613b1b82614c1a565b604082019050919050565b6000613b33602c8361442e565b9150613b3e82614c69565b604082019050919050565b6000613b5660388361442e565b9150613b6182614cb8565b604082019050919050565b6000613b79602a8361442e565b9150613b8482614d07565b604082019050919050565b6000613b9c60298361442e565b9150613ba782614d56565b604082019050919050565b6000613bbf60208361442e565b9150613bca82614da5565b602082019050919050565b6000613be260288361442e565b9150613bed82614dce565b604082019050919050565b6000613c05602c8361442e565b9150613c1082614e1d565b604082019050919050565b6000613c28603a8361442e565b9150613c3382614e6c565b604082019050919050565b6000613c4b60208361442e565b9150613c5682614ebb565b602082019050919050565b6000613c6e60358361442e565b9150613c7982614ee4565b604082019050919050565b6000613c9160298361442e565b9150613c9c82614f33565b604082019050919050565b6000613cb4602f8361442e565b9150613cbf82614f82565b604082019050919050565b6000613cd760228361442e565b9150613ce282614fd1565b604082019050919050565b6000613cfa60218361442e565b9150613d0582615020565b604082019050919050565b6000613d1d60318361442e565b9150613d288261506f565b604082019050919050565b6000613d40602c8361442e565b9150613d4b826150be565b604082019050919050565b6000613d63602d8361442e565b9150613d6e8261510d565b604082019050919050565b604082016000820151613d8f6000850182613da8565b506020820151613da26020850182613da8565b50505050565b613db181614642565b82525050565b613dc081614642565b82525050565b6000613dd2828561392e565b9150613dde828461392e565b91508190509392505050565b6000602082019050613dff6000830184613840565b92915050565b6000608082019050613e1a6000830187613840565b613e276020830186613840565b613e346040830185613db7565b8181036060830152613e4681846138bc565b905095945050505050565b60006020820190508181036000830152613e6b818461384f565b905092915050565b6000602082019050613e8860008301846138ad565b92915050565b6000606082019050613ea360008301866138ad565b613eb06020830185613db7565b613ebd6040830184613db7565b949350505050565b60006020820190508181036000830152613edf81846138f5565b905092915050565b60006020820190508181036000830152613f008161395f565b9050919050565b60006020820190508181036000830152613f2081613982565b9050919050565b60006020820190508181036000830152613f40816139a5565b9050919050565b60006020820190508181036000830152613f60816139c8565b9050919050565b60006020820190508181036000830152613f80816139eb565b9050919050565b60006020820190508181036000830152613fa081613a0e565b9050919050565b60006020820190508181036000830152613fc081613a31565b9050919050565b60006020820190508181036000830152613fe081613a54565b9050919050565b6000602082019050818103600083015261400081613a77565b9050919050565b6000602082019050818103600083015261402081613a9a565b9050919050565b6000602082019050818103600083015261404081613abd565b9050919050565b6000602082019050818103600083015261406081613ae0565b9050919050565b6000602082019050818103600083015261408081613b03565b9050919050565b600060208201905081810360008301526140a081613b26565b9050919050565b600060208201905081810360008301526140c081613b49565b9050919050565b600060208201905081810360008301526140e081613b6c565b9050919050565b6000602082019050818103600083015261410081613b8f565b9050919050565b6000602082019050818103600083015261412081613bb2565b9050919050565b6000602082019050818103600083015261414081613bd5565b9050919050565b6000602082019050818103600083015261416081613bf8565b9050919050565b6000602082019050818103600083015261418081613c1b565b9050919050565b600060208201905081810360008301526141a081613c3e565b9050919050565b600060208201905081810360008301526141c081613c61565b9050919050565b600060208201905081810360008301526141e081613c84565b9050919050565b6000602082019050818103600083015261420081613ca7565b9050919050565b6000602082019050818103600083015261422081613cca565b9050919050565b6000602082019050818103600083015261424081613ced565b9050919050565b6000602082019050818103600083015261426081613d10565b9050919050565b6000602082019050818103600083015261428081613d33565b9050919050565b600060208201905081810360008301526142a081613d56565b9050919050565b60006020820190506142bc6000830184613db7565b92915050565b60006040820190506142d76000830185613db7565b6142e46020830184613db7565b9392505050565b600060c0820190506143006000830189613db7565b61430d6020830188613db7565b61431a6040830187613db7565b6143276060830186613db7565b6143346080830185613db7565b61434160a08301846138ad565b979650505050505050565b6000614356614367565b90506143628282614735565b919050565b6000604051905090565b600067ffffffffffffffff82111561438c5761438b614898565b5b602082029050602081019050919050565b600067ffffffffffffffff8211156143b8576143b7614898565b5b6143c1826148c7565b9050602081019050919050565b6000819050602082019050919050565b600081519050919050565b600081519050919050565b600081519050919050565b6000602082019050919050565b600082825260208201905092915050565b600082825260208201905092915050565b600082825260208201905092915050565b600081905092915050565b600061445582614642565b915061446083614642565b9250827fffffffffffffffffffffffffffffffffffffffffffffffffffffffffffffffff038211156144955761449461480b565b5b828201905092915050565b60006144ab82614660565b91506144b683614660565b92508260ff038211156144cc576144cb61480b565b5b828201905092915050565b60006144e282614642565b91506144ed83614642565b9250826144fd576144fc61483a565b5b828204905092915050565b600061451382614642565b915061451e83614642565b9250817fffffffffffffffffffffffffffffffffffffffffffffffffffffffffffffffff04831182151516156145575761455661480b565b5b828202905092915050565b600061456d82614642565b915061457883614642565b92508282101561458b5761458a61480b565b5b828203905092915050565b60006145a182614660565b91506145ac83614660565b9250828210156145bf576145be61480b565b5b828203905092915050565b60006145d582614622565b9050919050565b60008115159050919050565b60007fffffffff0000000000000000000000000000000000000000000000000000000082169050919050565b600061ffff82169050919050565b600073ffffffffffffffffffffffffffffffffffffffff82169050919050565b6000819050919050565b600067ffffffffffffffff82169050919050565b600060ff82169050919050565b82818337600083830152505050565b60005b8381101561469a57808201518184015260208101905061467f565b838111156146a9576000848401525b50505050565b60006146ba82614642565b915060008214156146ce576146cd61480b565b5b600182039050919050565b60006146e482614660565b915060008214156146f8576146f761480b565b5b600182039050919050565b6000600282049050600182168061471b57607f821691505b6020821081141561472f5761472e614869565b5b50919050565b61473e826148c7565b810181811067ffffffffffffffff8211171561475d5761475c614898565b5b80604052505050565b600061477182614614565b915061ffff8214156147865761478561480b565b5b600182019050919050565b600061479c82614642565b91507fffffffffffffffffffffffffffffffffffffffffffffffffffffffffffffffff8214156147cf576147ce61480b565b5b600182019050919050565b60006147e582614642565b91506147f083614642565b925082614800576147ff61483a565b5b828206905092915050565b7f4e487b7100000000000000000000000000000000000000000000000000000000600052601160045260246000fd5b7f4e487b7100000000000000000000000000000000000000000000000000000000600052601260045260246000fd5b7f4e487b7100000000000000000000000000000000000000000000000000000000600052602260045260246000fd5b7f4e487b7100000000000000000000000000000000000000000000000000000000600052604160045260246000fd5b6000601f19601f8301169050919050565b7f5468697320746f6b656e20496420646964206e6f742077696e20616e7974686960008201527f6e67000000000000000000000000000000000000000000000000000000000000602082015250565b7f455243373231456e756d657261626c653a206f776e657220696e646578206f7560008201527f74206f6620626f756e6473000000000000000000000000000000000000000000602082015250565b7f4552433732313a207472616e7366657220746f206e6f6e20455243373231526560008201527f63656976657220696d706c656d656e7465720000000000000000000000000000602082015250565b7f496e76616c69642070657263656e746167652070617373656400000000000000600082015250565b7f4f776e61626c653a206e6577206f776e657220697320746865207a65726f206160008201527f6464726573730000000000000000000000000000000000000000000000000000602082015250565b7f5468657265206d7573742062652061746c65617374206120627566666572206f60008201527f66203120286d6f7265207468616e2920746865207061727469636970616e747360208201527f20636f756e740000000000000000000000000000000000000000000000000000604082015250565b7f5468652070657263656e7461676520646964206e6f742061646420757020746f60008201527f2031303000000000000000000000000000000000000000000000000000000000602082015250565b7f4552433732313a20746f6b656e20616c7265616479206d696e74656400000000600082015250565b7f5468652061727261792070657263656e7461676573206d75737420626520696e60008201527f2064657363656e64696e67206f72646572000000000000000000000000000000602082015250565b7f5468697320746f6b656e20496420646f6573206e6f7420657869737400000000600082015250565b7f4552433732313a207472616e7366657220746f20746865207a65726f2061646460008201527f7265737300000000000000000000000000000000000000000000000000000000602082015250565b7f4552433732313a20617070726f766520746f2063616c6c657200000000000000600082015250565b7f54686572652063616e6e6f74206265206d6f7265207468616e20746865206d6160008201527f7820646973747269627574696f6e73206f720000000000000000000000000000602082015250565b7f4552433732313a206f70657261746f7220717565727920666f72206e6f6e657860008201527f697374656e7420746f6b656e0000000000000000000000000000000000000000602082015250565b7f4552433732313a20617070726f76652063616c6c6572206973206e6f74206f7760008201527f6e6572206e6f7220617070726f76656420666f7220616c6c0000000000000000602082015250565b7f4552433732313a2062616c616e636520717565727920666f7220746865207a6560008201527f726f206164647265737300000000000000000000000000000000000000000000602082015250565b7f4552433732313a206f776e657220717565727920666f72206e6f6e657869737460008201527f656e7420746f6b656e0000000000000000000000000000000000000000000000602082015250565b7f4552433732313a206d696e7420746f20746865207a65726f2061646472657373600082015250565b7f556e61626c6520746f2061636365737320646966666572656e74206f776e657260008201527f7320746f6b656e73000000000000000000000000000000000000000000000000602082015250565b7f4552433732313a20617070726f76656420717565727920666f72206e6f6e657860008201527f697374656e7420746f6b656e0000000000000000000000000000000000000000602082015250565b7f54686520616d6f756e74207472616e7366657272656420666f7220746865207460008201527f69636b657420707269636520646f6573206e6f74206d61746368000000000000602082015250565b7f4f776e61626c653a2063616c6c6572206973206e6f7420746865206f776e6572600082015250565b7f546865207265717569726564207061727469636970616e747320666f7220746860008201527f697320726f756e6420686173206265656e206d65740000000000000000000000602082015250565b7f4552433732313a207472616e73666572206f6620746f6b656e2074686174206960008201527f73206e6f74206f776e0000000000000000000000000000000000000000000000602082015250565b7f4552433732314d657461646174613a2055524920717565727920666f72206e6f60008201527f6e6578697374656e7420746f6b656e0000000000000000000000000000000000602082015250565b7f5468652064726177206e756d626572207061737365642077617320696e76616c60008201527f6964000000000000000000000000000000000000000000000000000000000000602082015250565b7f4552433732313a20617070726f76616c20746f2063757272656e74206f776e6560008201527f7200000000000000000000000000000000000000000000000000000000000000602082015250565b7f4552433732313a207472616e736665722063616c6c6572206973206e6f74206f60008201527f776e6572206e6f7220617070726f766564000000000000000000000000000000602082015250565b7f455243373231456e756d657261626c653a20676c6f62616c20696e646578206f60008201527f7574206f6620626f756e64730000000000000000000000000000000000000000602082015250565b7f5468652077696e6e696e672070657263656e7461676520636f756e74206d757360008201527f7420626520657863656564656400000000000000000000000000000000000000602082015250565b615165816145ca565b811461517057600080fd5b50565b61517c816145dc565b811461518757600080fd5b50565b615193816145e8565b811461519e57600080fd5b50565b6151aa81614642565b81146151b557600080fd5b50565b6151c18161464c565b81146151cc57600080fd5b50565b6151d881614660565b81146151e357600080fd5b5056fea2646970667358221220501b1748e341b71cc797378fe28f026dae8f996d656e92bebd7ab3add62170c364736f6c63430008010033",
  "linkReferences": {},
  "deployedLinkReferences": {}
}